:020000040800F2
:1000000078300020D9010008212A0008E7250008DF
:10001000012A000877060008E958000800000000DF
:100020000000000000000000000000007135000822
:100030006D07000800000000393400087D35000815
:10004000F3010008F3010008F3010008F3010008C0
:10005000F3010008F3010008F3010008F3010008B0
:10006000F3010008F3010008F3010008F3010008A0
:10007000F3010008F3010008F3010008F301000890
:10008000F3010008F3010008F301000839580008E3
:1000900045580008F3010008F3010008F3010008C7
:1000A000F3010008F3010008F3010008F301000860
:1000B000F9350008F3010008F3010008F301000816
:1000C000F3010008F3010008F3010008F301000840
:1000D000F3010008F3010008F3010008F301000830
:1000E0006F070008F3010008F301000800F002F8B0
:1000F00000F063F80AA090E8000C82448344AAF15F
:100100000107DA4501D100F058F8AFF2090EBAE85C
:100110000F0013F0010F18BFFB1A43F0010318473B
:100120001C5A00003C5A000010F8013B0A4413F02E
:10013000030408BF10F8014B1D1108BF10F8015B44
:10014000641E05D010F8016B641E01F8016BF9D133
:10015000002D15D010F8014B03F00C030C2BA1EB74
:1001600004040ABF10F8013BA4EB8314A4EB03249E
:1001700005F1010314F8016B5B1E01F8016BF9D561
:10018000914238BF10F8013BD1D3704700230024BF
:1001900000250026103A28BF78C1FBD8520728BF97
:1001A00030C148BF0B607047642900F08380002095
:1001B00070471FB51FBD10B510BD00F022FA1146E3
:1001C000FFF7F7FF05F091FC00F040FA03B4FFF7EA
:1001D000F2FF03BC00F048FA09488047094800478D
:1001E000FEE7FEE7FEE7FEE7FEE7FEE7FEE7FEE7E7
:1001F000FEE7FEE704480549054A064B7047000044
:10020000F7350008ED000008782400207830002041
:1002100078280020782800200FB41CB50C0007AA0D
:10022000009001D02044401E074B7B44694601905A
:10023000069800F0C6F9002C03D06946002000F0B3
:10024000D3F91CBC5DF814FBC50300002DE9F04197
:100250000E460446002020622046E168884730B3FD
:10026000252805D0D4E901219047206A401CF2E7F7
:10027000E168204600278847050018D0A5F1410015
:10028000192802D820354FF4006732462946204607
:100290002760FFF789FF40B1012804D0F61D26F042
:1002A00007060836D8E7361DD6E72846DAE7206A7B
:1002B000BDE8F0812DE9F04106460024106875295B
:1002C000314616A510D0AFF30080002802DA404274
:1002D00013A507E031688A0701D512A502E0490796
:1002E00004D511A5012401E0AFF3008000210A220A
:1002F00006F1240709E0B0FBF2FCB0FBF2F302FBCD
:100300001C00303078541846491C0028F3D123468D
:100310002A463046BDE8F04100F0F4B80000000085
:100320002D0000002B0000002000000040EA010327
:1003300070B59B072ED14FF00136042A2AD308C886
:1003400010C99D1B9D43121F15EAC61517D0D8B2C0
:10035000E1B2401A50EA056110D198B2A1B2401A38
:1003600050EA05410AD123F07F4024F07F41401A32
:1003700050EA052102D1180EA0EB146070BDA34213
:10038000DBD018BA21BA884201D9012070BD4FF0E4
:10039000FF3070BD0AB9002070BD10F8013B11F8A4
:1003A000014B63B1A3420AD1521E08D010F8013BA1
:1003B00011F8014B1BB1A34201D1521EEDD1181B04
:1003C00070BD032A40F2308010F0030C00F015805D
:1003D00011F8013BBCF1020F624498BF11F801CB48
:1003E00000F8013B38BF11F8013BA2F1040298BFAD
:1003F00000F801CB38BF00F8013B11F0030300F017
:100400002580083AC0F0088051F8043B083A51F8BA
:1004100004CBA0E80810F5E7121D5CBF51F8043BBF
:1004200040F8043BAFF30080D20724BF11F8013B32
:1004300011F801CB48BF11F8012B24BF00F8013B94
:1004400000F801CB48BF00F8012B704710B5203AE7
:10045000C0F00B80B1E81850203AA0E81850B1E87D
:100460001850A0E81850BFF4F5AF5FEA027C24BF33
:10047000B1E81850A0E8185044BF18C918C0BDE82A
:1004800010405FEA827C24BF51F8043B40F8043BF3
:1004900008BF7047D20728BF31F8023B48BF11F8A8
:1004A000012B28BF20F8023B48BF00F8012B704702
:1004B0004FF0000200B5134694469646203922BFFD
:1004C000A0E80C50A0E80C50B1F12001BFF4F7AF48
:1004D000090728BFA0E80C5048BF0CC05DF804EB2A
:1004E000890028BF40F8042B08BF704748BF20F898
:1004F000022B11F0804F18BF00F8012B7047704796
:10050000704770472DE9F0470D46994692460446DC
:1005100000F124080168880604D5E06921F0100183
:10052000216000E00120A84201DD471B00E0002718
:10053000A1697A1902EB0900081AA0612078C006A7
:1005400002D42046AFF30080002608E0D4E9012160
:100550001AF806009047206A401C761C20624E451F
:10056000F4DB2078C0060AD52046AFF3008006E011
:10057000D4E9012130209047206A401C2062381EB7
:10058000A7F10107F4DC07E0D4E9012118F8050020
:100590009047206A401C2062281EA5F10105F3DC6B
:1005A0002046AFF300802078000602D50220BDE887
:1005B000F0870120FBE7000001694A1C026108780E
:1005C000704700B58FB0CDE9013100210591054993
:1005D0007944CDE9031011466846FFF737FE0FB0A6
:1005E00000BD0000E5FFFFFF0A6802F8010B0A608A
:1005F0007047D1E900239A4202D2531C0B6010705D
:100600007047754600F02CF8AE4605006946534623
:1006100020F00700854618B020B5FFF7EBFDBDE8D8
:1006200020404FF000064FF000074FF000084FF059
:10063000000B21F00701AC46ACE8C009ACE8C009EA
:10064000ACE8C009ACE8C0098D46704710B5044657
:10065000AFF300802046BDE81040FFF7B7BD0000B3
:10066000004870471424002001491820ABBEFEE763
:10067000260002007047FEE710B504292EDD184B56
:10068000202902D0212929D111E09478118864F31E
:100690001F41D47841EA046143F8301003EBC000F5
:1006A00011790171517941719179817116E013F8D5
:1006B0003010117033F83010090A517053F83010AF
:1006C000090C917053F8301003EBC000090ED17083
:1006D000017911714179517180799071002010BDBB
:1006E000C003002000207047044910B501EBC01280
:1006F000034903F0B3F9002010BD0000842300205B
:100700004C1C002070B50C4605462046116805F0CB
:1007100037F922460449284603F0A0F90249284641
:1007200003F080F9002070BD4C1C002010B5044679
:10073000C0EB04100A4B00EBC00003EB8000D0F8C4
:10074000140208B1012010BD13460A46054920468F
:1007500003F092F92046BDE81040024903F018BAB0
:10076000682100204C1C00200020704770474FF487
:10077000805000F04BB972B6FEE700002DE9F04161
:10078000504E514C06F11205B16821B14F4805F0A9
:100790007CF90020B06000F0EDF80521B06000F0B9
:1007A000D9F805224AA1FFF7C1FD28B101F0E0FF09
:1007B0002088401C2080E7E7B06800F0BDF8A870F2
:1007C000B06800F0B9F82870B06800F0B5F8E870CB
:1007D000AF7801464B2F07D04D2F17D0562F25D07D
:1007E0006088401C608051E0162905D001F0C0FFF0
:1007F000A088401CA080C7E72878B278821A012A16
:1008000002D06289521C6281B0701EE0042903D0BC
:10081000E088401CE08039E02878F278821A012ACA
:1008200002D0A289521CA281F0700EE0802903D36D
:100830002089401C208129E028783279821A012AF7
:1008400002D0E289521CE2813071B06800F082F877
:100850006860B06800F070F86870E978686805F062
:10086000DFF86978884214D04B2F04D04D2F06D082
:10087000562F0BD107E0208A401C208206E0608AB8
:10088000401C608202E0A08A401CA08201F070FF40
:100890007AE74B2F04D04D2F0BD0562F0ED10BE003
:1008A0006868401C6860E878401EE87001F070FFDE
:1008B00004E001F07DFF01E001F08AFFA81CBDE823
:1008C000F081000014000020D41A0020C418002079
:1008D000504C4B423100000070B5134805F0EDF864
:1008E000124805F0EAF8124D002400BF04EB041092
:1008F00005EB40010C4805F0C8F8641CE4B2402C3C
:10090000F4D34FF4FA6422460021252002F036FA8F
:1009100008480849224600780E3102F0E7FABDE89F
:10092000704004F0E3BF0000C4180020CC19002080
:10093000441000202000002090F8202090F8211082
:100940008A4201D800207047425C491C80F821107F
:100950001046704790F8203090F821209B1A8B4267
:1009600001DA002070471144131880F8211018464E
:10097000704700002DE9F041134C4FF4FA67002650
:10098000607878B16670114805F061F8050009D00B
:100990003A4605F12001284602F030FA29460C4873
:1009A00005F073F8207810B1267001F087FE084832
:1009B00005F04DF80028E3D0202180F8201080F8C1
:1009C0002160BDE8F081000014000020C418002060
:1009D000CC19002070B5044600F01AF90546601CD9
:1009E00002D004480078044400F012F9401BA042F1
:1009F000FAD370BD30010020B0F5805F02D102490A
:100A0000012048707047000014000020044910B510
:100A10000A68024202D00860FFF7EEFF10BD000036
:100A2000140401402DE9F84FDFF8B8910024A9F132
:100A3000040B23460F2709F1040AABF1040EC9E0A9
:100A40000125A5402A40AA427DD1674ED1F804C0B5
:100A5000ACEB0608B44532D014DCBCF1030F3AD03D
:100A600009DCBCF1000F2AD0BCF1010F1CD0BCF195
:100A7000020F31D11DE0BCF1110F17D0BCF1120FE4
:100A80002AD119E0B8F5881F19D006DCB8F5803FE7
:100A900015D0B8F5801F1FD111E0B8F5001F0ED09A
:100AA000B8F5041F18D10AE0CB6815E0CB681B1D10
:100AB00012E0CB6808330FE0CB680C330CE08B6896
:100AC0002BB1012B4FF0080303D0456104E0042350
:100AD00002E0056100E00023FF2A01D8064601E09C
:100AE00000F104064FEA840501D9A5F12005D6F8E6
:100AF000008007FA05FC28EA0C0803FA05F548EA25
:100B00000508C6F800804D68ED0062D5374DAE6926
:100B100046F00106AE61AD6924F0030605F001055B
:100B20000095334D06EB050CDCF80850A607360F90
:100B300007FA06F825EA0805DFF8B880404503D132
:100B40004FF0000817E044E0DFF8AC80404502D1E8
:100B50004FF001080FE0DFF8A480404502D14FF0CC
:100B6000020808E0DFF89880404502D14FF0030802
:100B700001E04FF0040808FA06F848EA0508CCF846
:100B800008804D68D9F80060ED024D4601D5164346
:100B900000E096432E604D68DAF80060AD025546DD
:100BA00001D5164300E096432E604D68DBF80060E7
:100BB000AD035D4601D5164300E096432E604D68B7
:100BC000DEF80060ED03754601D5164300E096435C
:100BD0002E60641C0D682A46E5407FF431AFBDE805
:100BE000F88F0000080401400000111000100240BE
:100BF0000000014000080140000C014000100140CD
:100C0000001401400AB1016170470904FBE70000CC
:100C10000148806870470000300100200248816868
:100C2000027811448160704730010020074810B5F8
:100C3000016841F010010160032000F075F8002008
:100C400000F006F800F024F8002010BD002002405B
:100C500070B50D4D04464FF47A712878B1FBF0F071
:100C60000A490968B1FBF0F001F0D5FA48B9102C37
:100C700007D200222146501E00F036F800206C609A
:100C800070BD012070BD0000300100203C0100203B
:100C90000C4808B5816941F001018161816901F069
:100CA00001010091C16941F08051C161C06900F04A
:100CB000805000900448416821F0E06141F00071EB
:100CC000416008BD0010024000000140002809DB1F
:100CD00000F01F02012191404009800000F1E02056
:100CE000C0F8001170470000F0B40E4B1B680C46B2
:100CF000C3F30223C3F10705042D00D90425191DF0
:100D0000072901D2002300E0DB1E012606FA05F1C7
:100D1000491E214099409E40761E16403143F0BC4A
:100D200004F06EBE0CED00E0064900F00702086812
:100D30004FF6FF03184040EA0220034A10430860C0
:100D4000704700000CED00E00000FA0510B50C063D
:100D500007D501F0070101EB810100EBC10028304C
:100D600005E001EB810100EBC10000F5B47099B220
:100D700032B1012202730181190C4181002010BDA2
:100D800000220273C180F9E7704701EB810200EB9A
:100D9000C202D0F8EC02D26B03F048BC01EB810236
:100DA00000EBC202D0F8EC02D2F87C2103F092BC36
:100DB00070B504460B0601F0070000EB800104EB60
:100DC000C1014FF001024FF0000503D581F8292041
:100DD000283103E081F8695101F5B471087094F885
:100DE000A802012808D084F8A822206804F0B8F9E5
:100DF00084F8A852002070BD022070BD70B5044672
:100E000001F00F006268904201D9012070BD0B060D
:100E100001F0070000EB800104EBC1014FF001027B
:100E20004FF0000503D581F82920283103E081F82F
:100E3000695101F5B4718D70087094F8A802012809
:100E400008D084F8A822206804F027FA84F8A85271
:100E5000002070BD022070BD2DE9F05F04685FEADC
:100E6000424C0B788D69B4F850C04FF000064BF639
:100E70008F7948F2800A48F68F7B48F2C00E4FF413
:100E800080672AD54FF0020808EBC308C44407EB7B
:100E90004C07E45BC4F30904A54203D32D1B8D6109
:100EA00001D00BE08E61066836F8235005EA09058B
:100EB00085F4005545EA0A0526F82350520609D55F
:100EC0000D78036833F8252002EA0B0242EA0E028D
:100ED00023F8252084B30A8929E04FF0060808EB9F
:100EE000C308C44407EB4C07E45BC4F30904A54200
:100EF00003D32D1B8D6101D00BE08E61066836F89F
:100F0000235005EA090585F4005545EA0A0526F847
:100F10002350520609D40B78056835F8232002EADD
:100F20000B0242EA0E0225F823202CB14A894969B6
:100F30000068234604F090FC2046BDE8F09F2DE9B0
:100F4000F05F054600680C465FEA426C16468B6906
:100F50002278B0F850C048F68F774CF280094FF4F1
:100F6000004B4FF6FF7E4FF4806A4FF0000172D5C0
:100F70004FF0020808EBC208E0440AEB480C30F8D6
:100F80000C00C0F30900834211D91B1AA3610FD0D2
:100F9000730407D52E6836F822303B4043EA090334
:100FA00026F8223094F82420012A47D052E1A1618A
:100FB000607810B1012813D01AE02868B0F85030DA
:100FC000184400EB0210B0F80424C2F30902A0F8A0
:100FD0000424B0F8042442F40042A0F8042407E0FA
:100FE0002868B0F85030184400EB0210A0F8041440
:100FF0006278286812B1012A11D018E0B0F85010B8
:101000000844217800EB0110B0F80C14C1F3090179
:10101000A0F80C14B0F80C1441F4004105E0B0F84D
:1010200050201044227800EB0210A0F80C14217814
:101030002846FFF7AAFE700472D40BE162690244ED
:101040006261E2690244E2612369226A9A4203D33F
:101050001846111A04E03EE084F824100AB1104644
:101060002162617811B1012929D031E02968B1F8F4
:1010700050201144227801EB0211B1F80424C2F38C
:101080000902A1F8042401F204413E2807D94209CB
:10109000C30600D1521E0B884BEA822207E048B1FA
:1010A0004208C30700D0521C0B880EEA8222134369
:1010B0000B800DE00A8842F400420A8008E02968AB
:1010C000B1F850201144227801EB0211A1F8040478
:1010D00083B22289BAE04FF0060808EBC208E04468
:1010E0000AEB480C30F80C00C0F30900834211D31E
:1010F0001B1AA3610FD0730407D42E6836F8223070
:101100003B4043EA090326F8223094F82420012AC0
:1011100051D09FE0A161607818B1012814D01BE084
:101120003FE02868B0F85030184400EB0210B0F8E7
:101130000424C2F30902A0F80424B0F8042442F401
:101140000042A0F8042407E02868B0F850301844A2
:1011500000EB0210A0F804146278286812B1012A8A
:1011600011D018E0B0F850100844217800EB0110BD
:10117000B0F80C14C1F30901A0F80C14B0F80C1469
:1011800041F4004105E0B0F850201044227800EB13
:101190000210A0F80C1421782846FFF7F6FD700421
:1011A00058D42278296831F82200384040EA0900F2
:1011B00021F822004EE0626902446261E269024461
:1011C000E2612369226A9A4203D31846111A216206
:1011D00004E00AB11046216284F82410627829687C
:1011E00012B1012A28D02FE0B1F850201144227802
:1011F00001EB0211B1F80C24C2F30902A1F80C248E
:1012000001F20C413E2807D94209C30600D1521E03
:101210000B884BEA822207E048B14208C30700D09E
:10122000521C0B880EEA822213430B800CE00A88C2
:1012300042F400420A8007E0B1F8502011442278BD
:1012400001EB0211A1F80C04628983B2616928687C
:1012500004F037FB2278296831F8220048F6BF7382
:10126000184080F0300048F28003184321F8220033
:101270000020BDE8F09F01F0070101EB810100EBC8
:10128000C100D0F8840170472DE9F04104460F06F3
:1012900001F0070000EB800104EBC1014FF00106F3
:1012A0004FF0000503D581F82960283103E081F86B
:1012B000695101F5B471022B08700A61CB7000D13D
:1012C0000D7194F8A802012809D084F8A86220685A
:1012D00003F0F6FD284684F8A852BDE8F08102200C
:1012E000FBE710B501F0070404EB840100EBC1013A
:1012F000C1E95F230022C1F8842181F8692181F8C6
:101300006841006801F5B47104F01CF8002010BDBC
:1013100070B504460D4601F007006168884201D9A6
:10132000012070BD29064FF000064FF0010207D5DD
:1013300000EB800104EBC10181F82920283107E08E
:1013400005EB850104EBC10181F8696101F5B47118
:101350008A70087094F8A802012807D084F8A8229F
:10136000206803F0D6FF680702D006E0022070BDB7
:1013700004F52C71206803F08EFF84F8A862002029
:1013800070BD10B501F0070404EB840100EBC1014E
:10139000C1E90F23012281F84C208B6400234B64A8
:1013A00081F8292001F8284F006803F0CBFF0020C6
:1013B00010BD00001FB50446006804F049FA01049E
:1013C00003D5204601F062FE1FBD41050DD5206802
:1013D00030F8441F21F480610180204600F018F9A4
:1013E0000021204600F02FF91FBD410405D52068DB
:1013F00030F8441F21F4804174E0810405D5206851
:1014000030F8441F21F400516CE0C10414D5206869
:1014100030F8401F21F004010180206830F8401F9F
:1014200021F008010180204600F005F9206830F81D
:10143000441F21F4805155E0010540D5D4F8002027
:101440000020694632F8203021F81030401CC0B22C
:101450000828F7D332F8400F40F0010010802068D0
:1014600030F8402F22F0010202802068B0F84420BA
:101470005205FBD530F8442F22F480620280002010
:10148000236831F8102023F82020401CC0B208281F
:10149000F6D3206830F8401F41F008010180206831
:1014A00030F8441F21F400610180206830F8401FAB
:1014B00041F004010180204600F0F9F81FBD8105CC
:1014C00009D5206830F8441F21F4007101802046BE
:1014D00000F0B5F81FBDC005FCD5206830F8441FEA
:1014E00021F4807101801FBD2DE9F04186B0040018
:1014F00004D094F8A902002520B108E0012006B02C
:10150000BDE8F08184F8A852204600F05BF8032083
:1015100084F8A902206803F0B7FE04F11001142238
:1015200088466846FEF792FF94E80F0003F016FE27
:101530000227D0BB0021206804F0BBF9002001265F
:101540000EE000BF00EB800104EBC10181F82960CF
:1015500001F8280F401CCD700D614D61C0B28D6146
:1015600061688142EED8002012E000BF00EB8001EC
:1015700004EBC10181F8695181F8680181F86B5170
:10158000C1F87851C1F87C51401CC0B2C1F88051FB
:1015900061688142EAD8142241466846FEF756FF48
:1015A00094E80F0003F067FE10B184F8A972A5E774
:1015B00084F8245084F8A962206803F05AFE0020C1
:1015C0009DE7000008B500680F4988421AD10F480E
:1015D000C16941F40001C161C069002200F400004A
:1015E000009011461320FFF77FFB1320FFF76EFBDF
:1015F000002211461420FFF777FBBDE808401420B5
:10160000FFF764BB08BD0000005C00400010024012
:1016100070B5044680680125022801D0FFF7ABF8B9
:101620002946D4F8EC0203F05CF9D4F8EC02BDE8EA
:10163000704003F012B9D0F8EC0203F038B9D0F8DA
:10164000EC0203F03EB910B5044690F8A802012858
:101650000BD0012084F8A80284F82410206804F03C
:101660002AF9002084F8A80210BD022010BDD0F88D
:10167000EC2200F52C71104603F03FB910B504467A
:1016800090F8A802012810D0012084F8A802206850
:1016900004F0C9F801212046FFF776FB206803F02B
:1016A000E6FD002084F8A80210BD022010BDD0F88D
:1016B000EC0203F064B900002DE9F8430546007818
:1016C000354CC00754D0E0690026C00008D4E0695A
:1016D00040F08050E061E069012600F08050009009
:1016E0002E480168C90512D40168804641F4807112
:1016F0000160FFF78DFA074605E000BFFFF788FAA3
:10170000C01B642823D8D8F80000C005F6D5206A8D
:1017100010F4407021D0A98801F4407181421CD09E
:10172000206A1F49012220F440700A6000220A60EA
:101730002062C00711D0FFF76BFA074641F28838E4
:1017400008E000BFFFF764FAC11B414502D903203E
:10175000BDE8F883206A8007F4D5206A696820F420
:101760004070084320621EB1E06920F08050E061C3
:101770002878800705D56068A96820F440400843B0
:1017800060602878C00605D56068E96820F48000AC
:10179000084360600020DBE700100240007000405A
:1017A000400442422DE9F0470F46050061D0434E08
:1017B000306800F00700B84209D2306820F0070016
:1017C00038433060306800F00700B84251D12868D3
:1017D0003B4C810712D5400703D5606840F4E060B8
:1017E00060602878000703D5606840F4605060604E
:1017F0006068A96820F0F000084360602878C0079E
:1018000028D06868012810D02168022810D08907E4
:1018100000292EDA616821F0030101436160FFF7BE
:10182000F7F9804641F288390DE021688903EFE736
:101830008901EDE7FFF7ECF9A0EB0801494502D972
:101840000320BDE8F0876068696800F00C00B0EB29
:10185000810FEFD1306800F00700B8420BD9306833
:1018600020F0070038433060306800F00700B842CD
:1018700001D00120E5E72878400705D56068E968D0
:1018800020F4E060084360602878000706D56068AF
:10189000296920F4605040EAC100606000F018F847
:1018A0006168084AC1F30311515CC84006490860E9
:1018B00006480068FFF7CCF90020C2E7002002408C
:1018C000001002402A5B00083C0100203401002087
:1018D0000E4A51680E4801F00C03042B11D0082B5E
:1018E0000FD10C48C1F38343C903C05C0AD55168CA
:1018F000084AC1F34041921E515C054A5043B0FB77
:10190000F1F070470449484370470000001002405E
:1019100000127A001A5B000800093D002DE9F84F1B
:10192000040070D02078C04DC00749D06868C0F36B
:101930008100012807D06868C0F38100022809D11E
:101940006868C00306D52868800339D56068002818
:10195000E7D035E06068B0F5803F0BD010B1B0F54E
:10196000A02F11D0286820F480302860286820F447
:10197000802002E0286840F480302860606890B1E0
:10198000FFF746F906460AE0286840F48020286000
:10199000F0E700BFFFF73CF9801B642873D8286884
:1019A0008003F7D50CE0FFF733F9064605E000BFEA
:1019B000FFF72EF9801B6428F0D828688003F7D43D
:1019C00020789A4E80074FF001094FF0000839D572
:1019D000686810F00C0F07D06868C0F38100022817
:1019E00009D16868C00306D42868800714D5206927
:1019F000012808D110E02069B0B1C6F80090FFF7C7
:101A000007F9074605E00AE1FFF702F9C01B0228C3
:101A1000C4D828688007F7D52868616920F0F800E5
:101A200040EAC10028600DE0C6F80080FFF7F0F83A
:101A3000074604E0FFF7ECF8C01B022823D828680B
:101A40008007F7D4207800072CD57948A169D9B14F
:101A5000C0F80090FFF7DCF8074604E0FFF7D8F87D
:101A6000C01B02280FD8686A8007F7D571484FF469
:101A7000FA510068B0FBF1F0009000BF0098411EE1
:101A80000091FAD20EE080E0C0F80080FFF7C0F8C5
:101A9000074604E0FFF7BCF8C01B022875D8686A47
:101AA0008007F7D42078400760D5E8690027C00098
:101AB00008D4E86940F08050E861E869012700F047
:101AC000805000905C480168C90513D401688346C2
:101AD00041F480710160FFF79BF8824606E000BF89
:101AE000FFF796F8A0EB0A0064284ED8DBF8000058
:101AF000C005F5D5E06801280AD008B1052813D043
:101B0000286A20F001002862286A20F0040002E020
:101B1000286A40F001002862E06841F2883B98B1F1
:101B2000FFF776F882460BE0286A40F0040028624E
:101B3000EEE700BFFFF76CF8A0EB0A0159455AD851
:101B4000286A8007F6D50CE0FFF762F8824605E0C8
:101B5000FFF75EF8A0EB0A0159454CD8286A8007C8
:101B6000F6D41FB1E86920F08050E861E06988B3DD
:101B70006968C1F38101022944D00228C6F8608057
:101B800004D0FFF745F8044638E034E0FFF740F8AA
:101B9000074604E0FFF73CF8C01B02282BD8286852
:101BA0008001F7D4206AB0F5803F05D16868A1684C
:101BB00020F4003008436860D4E9080108436968EC
:101BC00021F4741108436860C6F86090FFF720F8AC
:101BD000044606E025E000BFFFF71AF8001B0228C4
:101BE00009D828688001F7D51BE000BFFFF710F87F
:101BF000001B022802D90320BDE8F88F2868800165
:101C0000F4D40EE00128F7D06868226A00F480312D
:101C1000914204D1616A00F47010884201D0012021
:101C2000EAE70020E8E7000000100240000042421E
:101C3000800442423C0100200070004070B5040066
:101C400009D0606A002540B125616561A56294F8FC
:101C5000510040B10CE0012070BD6068B0F5827F9A
:101C6000F4D0E561F2E784F85050204600F040F8E7
:101C7000022084F851002068016821F040010160D1
:101C8000A088218900F4827001F404410843A189ED
:101C900001F400610843217C01F002010843217D29
:101CA00001F001010843218B01F400710843217FF9
:101CB00001F03801084394F8201001F08001084336
:101CC000218D01F40051084321680860A0690421B6
:101CD00001EA1040216848602068C16921F4006170
:101CE000C1616565012084F85100002070BD0000CD
:101CF00030B585B0002400940194029403940068E8
:101D00001549884225D11548C16941F48041C16116
:101D1000C16901F480410491816941F00801816148
:101D200080690F4D00F0080004904FF420400090AF
:101D3000022001900320039069462846FEF772FEB8
:101D40004FF48040CDE90004694628460294FEF72E
:101D500069FE05B030BD00000038004000100240B0
:101D6000000C01402DE9F84F044690F851009846C8
:101D700016460F460025012801D0022598E060682C
:101D80004FF0040BB0F5827F01D1A068F8B194F850
:101D90005000012826D04FF0010984F85090FEF73A
:101DA00037FF8246002F7FD0002E7DD084F851B0BF
:101DB00000206065A763A687E6872063A086E0868B
:101DC00020646064A068B0F5004F0DD016E084F880
:101DD00051B013460A462046CDF8008000F024F9A1
:101DE000BDE8F88F0220FBE72068016821F0400180
:101DF00001602068016821F4804101602068016869
:101E0000490603D4016841F040010160E068D8B19F
:101E10003BE020688168C90709D0007BA16B08708E
:101E2000A06B401CA063E08F401EE0870CE0FEF733
:101E3000EFFEA0EB0A01414503D3B8F1FF3F03D009
:101E400006E0B8F1000F03D0E08F0028E1D11FE0D9
:101E500003252BE020688168C90709D0C068A16B01
:101E60000880A06B801CA063E08F401EE0870CE020
:101E7000FEF7CEFEA0EB0A01414503D3B8F1FF3FC8
:101E800003D0E5E7B8F1000FE2D0E08F0028E1D100
:101E900052464146204601F0D0FA08B12020606544
:101EA000606D00E000E008B1012501E084F8519088
:101EB000002084F85000284692E72DE9F84F0446A8
:101EC00090F850000026984615468A4601280CD006
:101ED000012784F85070FEF79BFE814694F851006C
:101EE000B346012804D002269AE00220BDE8F88F0C
:101EF000BAF1000F6FD0002D6DD0032084F851008F
:101F0000C4F854B0C4F830A0A586E586C4F838B04B
:101F1000A4F83CB0A4F83EB0C4F844B0C4F840B053
:101F2000A068B0F5004F09D12068016821F0400198
:101F300001602068016841F4804101602068016807
:101F4000490603D4016841F040010160E068B0F542
:101F5000006F606803D058B3012D29D049E008B163
:101F6000012D1FD1206B21680088C86006E0206821
:101F70008168890709D5216B0988C160206B801CA5
:101F80002063E08E401EE0860CE0FEF741FEA0EBF1
:101F90000901414503D3B8F1FF3F03D006E0B8F192
:101FA000000F03D0E08E0028E1D125E0032635E0C4
:101FB000206B21680078087306E020688168890733
:101FC0000AD5216B09780173206B401C2063E08ED9
:101FD000401EE0860DE01FE0FEF71AFEA0EB0901AF
:101FE000414503D3B8F1FF3F03D0DFE7B8F1000F5D
:101FF000DCD0E08E0028E0D14A464146204601F080
:102000004AFA08B120206065A06818B92068C16844
:1020100080680090606D08B1012601E084F851707D
:1020200084F850B0304661E72DE9FF4F81B0044697
:1020300090F8500000260E9F1D4693464FF0010970
:1020400001280FD04FF0010A84F850A0FEF7E0FD00
:10205000804694F85100616801280DD0B1F5827F67
:1020600008D103E0022005B0BDE8F08FA16809B9EE
:10207000042801D00226C9E00298002865D0BBF1EF
:10208000000FFBD0002DF9D094F85100042802D0A5
:10209000052084F8510000206065C4F838B0E58759
:1020A000A58702992163E586A5862064606420687F
:1020B0000168490603D4016841F040010160E0680D
:1020C000B0F5006F606803D0F0B3012D47D081E018
:1020D00008B1012D3CD1206B21680088C860206BBD
:1020E000801C2063E08E401EE08631E0206881681D
:1020F00089070FD5E18E69B1B9F1010F0AD1216BC2
:102100000988C160206B801C2063E08E401EE08641
:102110004FF0000920688168C9070CD0E18F51B1E8
:10212000C068A16B0880A06B801CA063E08F401E7C
:10213000E0874FF00109FEF76BFDA0EB0800B84205
:1021400006D3781C04D001E009E05BE003265BE0E5
:10215000E08E0028CAD1E08F0028C7D140E0206B74
:10216000216800780873206B401C2063E08E401EBD
:10217000E0862FE02068816889070FD5E18E69B17C
:10218000B9F1010F0AD1216B09780173206B401C52
:102190002063E08E401EE0864FF0000920688168D1
:1021A000C9070CD0E18F51B1C068A16B0870A06B5A
:1021B000401CA063E08F401EE0874FF00109FEF74E
:1021C00027FDA0EB0800B84202D3781C02D0BAE782
:1021D000002FB8D0E08E0028CCD1E08F0028C9D1E4
:1021E00042463946204601F056F918B10126202012
:1021F00060650BE0A06818B92068C168806800902D
:10220000606D08B1012601E084F851A0002084F837
:102210005000304627E710B5401EB0F1807F01D353
:10222000012010BD4FF0E02460610F21601703F022
:10223000E7FB0020A06107202061002010BD70474F
:102240007047000070B590F83C20012A26D0012488
:1022500080F83C40022280F83D2003685A689D685F
:1022600022F070060A6832435A600D4B02689A42A7
:1022700008D0B2F1804F05D00A4B9A4202D00A4BE7
:102280009A4204D1496825F080031943916080F88F
:102290003D40002180F83C10084670BD022070BD12
:1022A000002C0140000400400008004010B504006C
:1022B00003D094F83D0010B107E0012010BD0020CC
:1022C00084F83C00204600F01FF8022084F83D000E
:1022D000211D206801F096F9012084F8460084F859
:1022E0003E0084F83F0084F8400084F8410084F800
:1022F000420084F8430084F8440084F8450084F8E0
:102300003D00002010BD000008B50068B0F1804F0E
:1023100012D10A48C16941F00101C161C0690022BE
:1023200000F00100009011461C20FEF7DDFCBDE826
:1023300008401C20FEF7CABC08BD00000010024087
:1023400090F83D10012901D001207047022180F84A
:102350003D100168CA6842F00102CA6000680B497A
:10236000884208D0B0F1804F05D00949884202D098
:102370000849884204D1816801F00701062903D089
:10238000016841F00101016000207047002C01400C
:10239000000400400008004070B5044690F83C007E
:1023A0000025012817D0012684F83C60022084F81B
:1023B0003D002068826822F0770222F47F4282602A
:1023C0000868502838D00DDC20284FD005DC90B3A9
:1023D000102811D14AE0022070BD302846D0402894
:1023E0000AD13BE060282FD070280DD0B0F5805F77
:1023F00003D0B0F5005F12D0012584F83D600020C5
:1024000084F83C00284670BDCB68D1E901212068E2
:1024100001F02EF92068816841F0770109E0CB686E
:10242000D1E90121206801F023F92068816841F495
:1024300080418160E1E719E0CA684968206801F0DD
:1024400029F95021206806E0CA684968206801F02F
:1024500032F96021206801F015F9CEE7CA684968B1
:10246000206801F017F940212068F4E7226801464E
:102470001046F0E7704770B50446006801694FF0F8
:102480000005C943890715D4C168C943890711D418
:10249000E91E0161012020772068806980072046BD
:1024A00002D0FFF7E7FF04E000F098F8204600F0C4
:1024B00096F8257720680169C943490717D4C16890
:1024C000C943490713D46FF004010161022020774A
:1024D0002068806910F4407F204602D0FFF7CAFFD1
:1024E00004E000F07BF8204600F079F825772068BA
:1024F0000169C943090716D4C168C943090712D441
:102500006FF008010161042020772068C06980070E
:10251000204602D0FFF7AEFF04E000F05FF820464F
:1025200000F05DF8257720680169C943C90617D412
:10253000C168C943C90613D46FF0100101610820B6
:1025400020772068C06910F4407F204602D0FFF752
:1025500091FF04E000F042F8204600F040F82577B3
:1025600020680169C943C90708D1C168C943C907BF
:1025700004D1891E0161204600F032F8206801690B
:10258000C943090609D4C168C943090605D46FF0D7
:10259000800101612046FFF752FE20680169C943AE
:1025A000490609D4C168C943490605D46FF0400102
:1025B0000161204600F016F820680169C9438906C8
:1025C0000BD4C168C943890607D46FF020010161AB
:1025D0002046BDE87040FFF733BE70BD70477047BE
:1025E00001F07CB87047FEE7F0B500230A243025DF
:1025F00037261F4611E000BFB4EB107F02D905EB70
:10260000107C01E006EB107C01F813C001EB430CD9
:1026100000015B1C8CF80170DBB29342ECD3F0BD7F
:102620000A4610B50146044801F0BCFE08B100207E
:1026300010BD012010BD00004C1C002070B50D4ED7
:10264000002406F1400500BF06EBC400002281888B
:1026500056F83400FEF7D6FA05EBC4000122818853
:1026600055F83400FEF7CEFA641CE4B2082CEBD324
:1026700070BD00005000002070B50F4C0D4B0021C4
:1026800060781A79C0F10705954207DC1518ED1F2F
:10269000182D03DA19680A44C11F515C00F032F8A2
:1026A0006078401CC0B26070082801D300206070C0
:1026B00070BD0000EC1A00204C0000200A4B0021E5
:1026C000587900280BD009480278C82A08D301702D
:1026D0001879401CC0B21871202803D9597170476D
:1026E000521C0270FFF7C8BFEC1A00204C000020FB
:1026F00003480021016041608160C160FFF79EBF17
:10270000EC1A00202DE9F041184D0F4610F0070695
:1027100006D005EBC60030F8041C50F8080C01E0A8
:10272000A98FA86B0122FEF76DFADFF84080002424
:10273000A8F1400808EBC4013806898858F834002D
:1027400001D5012200E00022FEF75CFA7806641C45
:10275000070EE4B2082CEDD305EBC60000228188F9
:1027600055F83600BDE8F041FEF74CBA9000002065
:1027700005484179042905D20421417100210171E4
:102780000249016070470000EC1A00201801002087
:1027900005484179002905D10121417100210171CC
:1027A0000249016070470000EC1A0020D0000020B0
:1027B00005484179022905D20221417100210171A8
:1027C0000249016070470000EC1A0020E800002078
:1027D00005484179032905D2032141710021017186
:1027E0000249016070470000EC1A0020000100203F
:1027F0002DE9F04385B000252E48009501950295FE
:102800000395816941F020018161816901F0200116
:102810000491816941F004018161816901F0040141
:102820000491816941F0080181618069DFF8889035
:1028300000F008000490002248F2F0314846FEF70C
:10284000E1F9DFF8788040F6FB7700223946404610
:10285000FEF7D8F9012448F2F000CDE90004022681
:10286000CDE9024669464846FEF7DCF8CDE900743A
:10287000CDE9024669464046FEF7D4F820030090B1
:102880000F48CDE9010569464046FEF7CBF84FF405
:1028900040708DE8710069464846FEF7C3F8002293
:1028A00011462820FEF720FA2820FEF70FFA05B07F
:1028B000BDE8F0830010024000080140000C014018
:1028C00000002110104810B50E4901604FF48271CC
:1028D000416000218160C1604FF400720161C0E974
:1028E00005121022C0E90721416281620A21C162FA
:1028F000FFF7A4F9002803D0BDE81040FDF73BBF67
:1029000010BD000000380040B404002010B586B0AF
:1029100000241748009401940294039404944FF007
:1029200080410594016048F69F41C0E901140121EE
:10293000C0E903148461FFF7B9FC08B1FDF71BFF80
:102940004FF48050009069460948FFF725FD08B113
:10295000FDF711FF049404A905480594FFF772FCE4
:1029600008B1FDF708FF0248FFF7EAFC06B010BD0A
:102970000C05002010B501F039FA00220F4910486B
:1029800001F01CFE08B1FDF7F6FE0E490C4802F0FE
:102990004FF808B1FDF7EFFE0B49094800F0A4FE1F
:1029A00008B1FDF7E8FE064802F0DCF8002803D085
:1029B000BDE81040FDF7DFBE10BD00007002002032
:1029C0004C1C002040010020AC0300200B4810B537
:1029D0000949016008214160022181600021816173
:1029E000C1610162FEF780FD002803D0BDE8104000
:1029F000FDF7C1BE10BD0000005C00405405002082
:102A0000FEE700000A4610B50146044801F0E4FC68
:102A100008B1002010BD012010BD00004C1C00209A
:102A2000FEE770B505460C46042000F0B1F800F052
:102A3000F00129432246BDE87040042000F0D4BADA
:102A400070B505460C46042000F0A2F8FA21B5FB4B
:102A5000F1F1F02202EB0111224600F00F00BDE877
:102A600070400143C9B2042000F0BEBA10B504465C
:102A700000F052F8224640F04001BDE81040072027
:102A800000F0B2BA70B504460D46022000F080F89E
:102A900040EA04012A46BDE87040022000F0A4BAD2
:102AA000FEB50446E2200B4E8DF804004FF480750D
:102AB000002229463046FEF7A5F8012302AA01A903
:102AC00005480094FFF7B0FA012229463046FEF788
:102AD00099F8FEBD00080140B4040020FEB504468C
:102AE000E1200B4E8DF804004FF48075002229463A
:102AF0003046FEF787F8012302AA01A90548009491
:102B0000FFF792FA012229463046FEF77BF8FEBD18
:102B100000080140B40400203EB5FF20441C0C4DC9
:102B20008DF80400002221462846FEF76BF84FF48A
:102B3000FA600090012302AA01A90648FFF774FA7F
:102B4000012221462846FEF75DF89DF808003EBDAB
:102B500000080140B404002010B5044601460020DE
:102B600000F016F8224640F00101BDE810400020B8
:102B700000F03ABA10B504460146002000F008F80B
:102B8000224640F00201BDE81040002000F02CBABF
:102B90007FB5104E0C468DF804004FF4807500226E
:102BA00029463046FEF72EF8012303AA01A90A4858
:102BB0000094FFF739FA2346012202A90648FFF7DD
:102BC000D1F8012229463046FEF71CF89DF808008E
:102BD00004B070BD00080140B4040020FEB50546F5
:102BE0006120104F0C468DF804004FF480760022CF
:102BF00031463846FEF706F8012302AA01A90A4821
:102C00000094FFF711FA2346202229460648FFF7D1
:102C1000A9F8012231463846FDF7F4FF9DF8080077
:102C2000FEBD000000080140B40400207CB5524DF8
:102C30000446012211022846FDF7E4FF002269152F
:102C40002846FDF7DFFF22460821002000F0CCF9DE
:102C500022463F21012000F0C7F92246032102202D
:102C600000F0C2F903212246084600F0BDF92246D1
:102C70000321042000F0B8F922460221052000F0CB
:102C8000B3F922460721062000F0AEF922467E2144
:102C9000072000F0A9F9E7218DF800108DF8011048
:102CA0008DF802108DF803108DF8041023460522CC
:102CB00069460A2000F0C0F9234605226946102023
:102CC00000F0BAF9C2218DF800108DF801108DF8CE
:102CD00002108DF803108DF8041023460522694672
:102CE0000B2000F0A9F92246C3210C2000F07CF94A
:102CF0002246C4210D2000F077F92246C5210E207E
:102D000000F072F92246C6210F2000F06DF922462C
:102D10000021112000F068F922460021122000F065
:102D200063F922460021132000F05EF922460021BB
:102D3000142000F059F922460021152000F054F922
:102D400022460021162000F04FF9224611211720BB
:102D500000F04AF9224600211C2000F045F92246E5
:102D600000211D2000F040F92046FFF799FE204683
:102D7000FFF7B4FE7CBD00000008014070B50446BA
:102D80000E4615461046FFF751FF2946202000F059
:102D900007F92946204600F093F82946304600F00E
:102DA00076F82946032000F090F82946012000F02B
:102DB00054F82A4601213F2000F03BF829463F20E5
:102DC000FFF760FE2946052000F02CF82946032075
:102DD000FFF727FE2946FA20FFF732FE2846FFF7C5
:102DE000BBFE2846FFF7C6FEBDE870400122510237
:102DF0000148FDF707BF00000008014070B50C4610
:102E00000546164611460720FFF7C2FEC0F34200F2
:102E1000207031462846FFF7E1FE3046BDE870409D
:102E2000FFF724BE801EC0B20A460146032000F010
:102E3000DBB870B50E460446154611460120FFF773
:102E4000A7FE012E07D0A0432A46BDE870400146E8
:102E5000012000F0C9B82043F6E770B504460D46DE
:102E60000020FFF795FE00F0FB0040F00801012C68
:102E700002D0022C05D102E021F0040101E041F072
:102E800004012A46BDE87040002000F0ADB870B5DE
:102E900004460D460620FFF77BFE00F0D7014CB13B
:102EA000012C02D0022C05D102E041F0080101E022
:102EB00041F020012A46BDE87040062000F094B899
:102EC0000A460146052000F08FB870B505460C464D
:102ED0000620FFF75DFE00F0F90040EA45002246BB
:102EE000BDE87040C1B2062000F07EB82DE9FC4775
:102EF000DFF8A88091460D46064600244FF400777F
:102F0000224639464046FDF77DFE082E31D007DCCB
:102F10006846012E09D0022E16D0042E2ED124E0B0
:102F2000102E32D0202E29D133E0C4F105012944DE
:102F300011F8011C0155641CE4B2052CF5D30522DF
:102F400001464B460A200DE0C4F10501294411F861
:102F5000011C0155641CE4B2052CF5D301464B4617
:102F600005220B2000F068F808E029784A460C207A
:102F700002E029784A460D2000F036F80122394651
:102F80004046FDF73FFEBDE8FC8729784A460E2003
:102F9000F2E729784A460F20EEE7000000080140DA
:102FA00070B50C460A4605460146112000F01CF893
:102FB00022462946122000F017F8224629461320FF
:102FC00000F012F822462946142000F00DF822469F
:102FD0002946152000F008F822462946BDE8704031
:102FE000162000F001B8000077B583B040F0200053
:102FF0000F4E14468DF804004FF4807500222946C8
:103000003046FDF7FFFD012302AA01A909480094FB
:10301000FFF70AF82346012204A90648FEF74DFFF0
:10302000012229463046FDF7EDFD06B070BD0000D7
:1030300000080140B40400202DE9FE4340F02000C8
:10304000104F154688468DF804004FF480761C46D4
:10305000002231463846FDF7D5FD012302AA01A919
:1030600009480094FEF7E0FF23462A4641460648F9
:10307000FEF723FF012231463846FDF7C3FDBDE8C8
:10308000FE83000000080140B40400202DE9F84F41
:10309000044640F68F7B48F60F794FF480684FF076
:1030A000000AC0E1B0F8441011F00F0539D030F833
:1030B000256031047ED530F8251001EA0B0141F07E
:1030C000800120F8251005EB850004EBC00797F878
:1030D000740107F5B47700286DD0F87802286BD01A
:1030E0003978226832F8210048F68F73184048F288
:1030F000C003184322F821003978206830F82120D5
:10310000B0F8503052047DD5022202EBC1015A18AA
:1031100008EB4201415A8905890D009173D03A8923
:10312000DFE0C9062DD4018801EA090141F400411C
:103130000180206804F12805B0F850302978022277
:1031400002EBC1015A1808EB4201405AC0F30900D2
:103150006064E16B0844E06300212046FDF715FE42
:1031600094F8240000289CD0A869002899D194F8EC
:103170002400216840F08000A1F84C0084F824A0CD
:1031800051E1018804F5B4750A0521D5B0F8502045
:103190002B78062101EBC3010A4408EB4201405A97
:1031A00004F52C71C0F30903EB61EA88206802F092
:1031B00053FB02E0B0E070E080E02068018801EAA3
:1031C0000B0141F0800101802046FEF750FA2AE110
:1031D0000904D5D5018801EA0B0141F08001018085
:1031E0002068B0F850202B78062101EBC3010A4477
:1031F00008EB4201405A83059B0DEB6110D06969D1
:1032000071B101E061E05FE0EA88206802F024FB30
:10321000E96968690844686100212046FDF7BEFD40
:10322000216808880205ABD4C0F301300328A7D079
:10323000B1F850000844B0F80C14C1F30901A0F82B
:103240000C142A6900F20C403E2A09D95109D20611
:1032500000D1491E02884FF4004343EA812109E06E
:10326000B2B15108D20700D0491C02884FF6FF7353
:1032700003EA81210A430280216808884BF68F7295
:10328000104080F4405048F2800210430880CAE0A9
:10329000018841F400410180EEE72068B0F8502039
:1032A0003B78062101EBC3010A4408EB4201415A75
:1032B0008905890D009118D0FA8812E03246394606
:1032C0002046FDF7C9FD00900FE0062202EBC10188
:1032D0005A1808EB4201415A8905890D009104D022
:1032E0007A897969009B02F0B7FAF8690099084475
:1032F000F8617969009808447861B86918B139694A
:103300000098814204D939782046FDF747FD03E053
:103310003946206802F016F830062FD505EB8500F7
:1033200004EBC001206830F8252002EA090242F4CB
:10333000004220F8252091F82B00283101281ED0CA
:10334000F0056CD42068B0F850300D78022202EB02
:10335000C5021A4408EB4202805A8A69C0F3090088
:10336000824255D9121A8A6154D04A6902444A618C
:10337000CA691044C861206801F0E4FF53E0C1F855
:1033800018A0087B524608B3700620D5487810B1C3
:10339000012812D03AE02068B0F8502010440A7892
:1033A00000EB0210B0F80424C2F30902A0F80424D0
:1033B000B0F8042442F4004206E02068B0F850302F
:1033C00018440B7800EB0310A0F804241EE04B789F
:1033D000206813B1012B11D018E0B0F85020104430
:1033E0000A7800EB0210B0F80C24C2F30902A0F82E
:1033F0000C24B0F80C2442F4004205E0B0F8503040
:1034000018440B7800EB0310A0F80C24097802E0B4
:10341000C1F818A0E9B22046FDF7B7FC03E0324638
:103420002046FDF78CFD2068B0F8441009043FF5F4
:1034300039AE0020BDE8F88F7047F8B50446406803
:103440004FF48273984217D1A0684FF48065B0F5AD
:10345000004F01D0A8420FD12068066826F0400630
:1034600006606068984207D1A068A84204D1009223
:103470000B460022012103E000920B46002280212E
:10348000204600F019F8002804D0606D40F02000BC
:1034900060650320F8BD38B50B4600920446002253
:1034A000802100F009F8002804D0606D40F0200071
:1034B0006065032038BD00002DE9F8431E469146A3
:1034C00088460446089DFDF7A3FB401B351AFDF70F
:1034D0009FFB074625480068C0F3CB30684338E0BF
:1034E000701C37D0FDF794FBC01BA84203D215B166
:1034F000009860B32CE02068416821F0E001416051
:103500006068B0F5827F0BD1A068B0F5004F02D0A3
:10351000B0F5806F04D12068016821F0400101609E
:10352000A06AB0F5005F09D12068016821F400515C
:1035300001602068016841F400510160012084F8B5
:103540005100002084F850000320BDE8F8830025D6
:10355000401E00902068816838EA010004D00021F4
:103560004945BDD10020F0E70121F9E73C010020E9
:1035700070470178407841EA00207047FDF74EBB64
:1035800030B593B028216846FCF792FF14210AA8B1
:10359000FCF78EFF002401200F9410941194010475
:1035A00012948DE8130004904FF4E010CDE9081058
:1035B000022507956846FEF7B1F908B172B6FEE735
:1035C0000F20CDE90A054FF48060CDE90C400221BF
:1035D0000AA80E94FEF7E6F808B172B6FEE71020CE
:1035E0000F9012940FA8FEF767F8002801D072B66A
:1035F000FEE713B030BD70470148FEF73CBF000046
:103600000C050020F0B50268164B174C174D4FF013
:103610008047984205D0B84203D0A04201D0A842CA
:1036200003D122F070064A683243984205D0B8426E
:1036300003D0A04201D0A84203D122F44074CA684A
:1036400022434C6922F08002224302608A68C262EF
:103650000A688262984201D10969016301214161CE
:10366000F0BD0000002C01400004004000080040B4
:1036700010B5846842EA032224F47F440A432243BB
:10368000826010BD826822F070020A4342F0070196
:103690008160704710B5036A046A24F00104046273
:1036A000846924F0F00444EA021423F00A020A4375
:1036B0008461026210BD10B5036A046A24F010042C
:1036C0000462846923F0A00324F4704444EA0232C3
:1036D00043EA01118261016210BD0000014901202D
:1036E000087070471400002019B1C0F8BC12002007
:1036F00070470320704700002DE9F0410546D0F8DF
:10370000103300201D4A0446165D06F00F068E4257
:1037100001D1204603E0641C14F0FF04F4D0C0EB98
:103720000012174C01EB810702EBC20205EB870682
:1037300004EB8202B4694FF0000C3CB103EBC70309
:103740009B6BB4FBF3F703FB17437BB1C2F814C2C6
:10375000D5F8BC321C6934B1D2F808520B46294660
:1037600002F50472A0470020BDE8F08100231A464C
:103770002846C6F818C001F00BF9F4E7C40200208F
:103780006821002070B50646002511482C46025DD0
:103790008A4201D1254603E0641C14F0FF04F6D0F0
:1037A000C5EB05100B4A00EBC00002EB800430466D
:1037B00000F0C6FFC4F80C02D6F8BC02D4F804121C
:1037C00004F50372C36828469847002070BD0000C6
:1037D000C5020020682100202DE9F047DFF88C8029
:1037E00000240546264608F1010A08F10209474669
:1037F00018F80410284600F010FF385D574600F016
:103800000F0000EB800005EB800086841AF804109E
:10381000284600F002FF385D4F4600F00F0000EB35
:10382000800005EB8000A0F8646119F804102846B8
:1038300000F0F3FE385D00F00F0000EB800005EBB8
:1038400080008684385D00F00F0000EB800005EBFF
:103850008000C684D5F8BC02416820468847641CB5
:1038600014F0FF04C3D00020BDE8F087C40200209C
:103870002DE9F0410024124E8046FF27C4EB0410CE
:1038800000EBC00016EB800517D0D8F8BC0268B179
:1038900095F80012FF2909D0D0F808C095F8013238
:1038A00005EB44222046E04785F80072641C14F0C2
:1038B000FF04E3D00020BDE8F0810320FBE7000017
:1038C000682100200A21018000487047CC020020B6
:1038D0004B21018000487047240300204B210180C8
:1038E00000487047D80200204B21018000487047F3
:1038F000240300202DE9F05FDFF820A105460AF13E
:10390000020700244FF0100B4FF00109A7F1010846
:10391000C4EB041000EBC001414800EB8106287C99
:103920001AF80410F0B340230222284600F080FF6A
:103930001AF80400402300F00F0000EB800005EBB4
:1039400080000222A0F8249018F80410284600F005
:103950006FFF18F8041001F00F0101EB810105EB76
:103960008101A1F86491395D082301F00F0101EB99
:10397000810105EB81010322A1F826B0395D2846BB
:1039800000F056FF395D01F00F0101EB810105EBFD
:103990008101A1F82490D5F8BC020168204688472F
:1039A000002000E014E0C6F81402C6F81802287CD3
:1039B00018F80410D6F8042268B34023284600F013
:1039C00043FF641C14F0FF04A2D00020BDE8F09F68
:1039D0004FF400730222284600F02AFF1AF8041060
:1039E0004FF4007301F00F0101EB810105EB810140
:1039F0000222A1F8249018F80410284600F018FFBD
:103A000018F8040000F00F0000EB800005EB8000C8
:103A1000A0F86491A7E74FF40073CFE7C402002039
:103A20006821002070B50C460B7CC0EB00120A4DDB
:103A3000084902EBC20205EB8202095CD2F80422BB
:103A40002BB14023204600F0FFFE002070BD4FF454
:103A50000073F7E7C502002068210020C0EB0010CA
:103A6000044900EBC00001EB8000C0F804220020F4
:103A70007047000068210020C0EB0010054900EBF2
:103A8000C00001EB8000C0F81032C0F8082200200E
:103A900070470000682100202DE9FC410646002007
:103AA0000C468DF80000ADF80400374A0979054648
:103AB0008646531C175CB94202D01F5CB94201D143
:103AC000864603E0401C10F0FF00F3D0CEEB0E1052
:103AD0002E4900EBC00001EB8000217811F060025C
:103AE0002BD0202A47D1E388F3B109060FD500EB8C
:103AF0004E22D6F8BC0217466178D0F808C070464E
:103B0000E047E288072A00D9072239462BE061788E
:103B100080F80012A17980F8011200EB4E21E288B2
:103B2000304600F08AFA2BE0D6F8BC026178002318
:103B3000866822467046B04722E0607830B101289E
:103B40001ED00A2809D00B2815D110E096F89C0247
:103B5000032810D1022201A905E096F89C0203284F
:103B600009D101226946304600F081FA08E096F852
:103B70009C02032804D02146304600F053FA032566
:103B80002846BDE8FC810000C70200206821002013
:103B900070B50446C0EB0410104A00EBC00002EB05
:103BA00080000D46D0F814220121AAB9C0F81412E1
:103BB0000B49D0F810220B5D03F00F0303EB8303D6
:103BC00005EB83039A61D0F81032D0F80822095D22
:103BD000284600F0DDFE0021084670BD6821002067
:103BE000C402002030B4144B144C00229D5C05F03C
:103BF0007F058D4204D0A55C05F07F058D4201D183
:103C00000F4A12E0521C12F0FF02EFD00D4A127858
:103C100002F07F028A4201D10B4A06E00B4A127879
:103C200002F07F028A4203D1094A526930BC104730
:103C300030BC032070470000C4020020C6020020F0
:103C400070030020C8030020780400208C010020AD
:103C50003002002030B4084B00229C5C8C4203D11F
:103C6000064A926930BC1047521C12F0FF02F4D091
:103C700030BC032070470000C50200207003002004
:103C800070B5054608480C464268284690470748E4
:103C90002146426828469047054821464268284602
:103CA0009047002070BD00007003002078040020C1
:103CB00030020020024910B509698847002010BD74
:103CC00070030020002070470A21018000487047DF
:103CD000800100207D210180004870473C1B0020AE
:103CE0007D21018000487047BC1B00207D210180A0
:103CF00000487047BC1B00202DE9FF411A481746B9
:103D00000D46007881424FF000002AD8174E0090EF
:103D10000190029000240390305DA8420AD123460E
:103D200013A210216846FCF777FA3A461449684610
:103D300000F038FA641C14F0FF04EDD0114800784C
:103D4000854204D13A460E490FA000F02BFA1248E2
:103D50000078854204D13A46094910A000F022FAC1
:103D6000074804B0BDE8F0817C010020C9020020B2
:103D700053544D3332204344432041434D25640086
:103D8000FC1A0020CA03002053544D3332205553EF
:103D900042204D4F555345008E01002053544D3362
:103DA0003220555342204B4559424F415244000066
:103DB00070B5054608480C460268284690470748F3
:103DC0002146026828469047054821460268284651
:103DD0009047002070BD0000700300207804002090
:103DE0003002002000207047002070472DE9F04F7E
:103DF00085B0594E0025ADF81050F16A812704A80E
:103E00008847564C80463A462378294601F04EF8BA
:103E1000BDF8102008F109015148093AFCF7D1FA20
:103E2000B16A04A88847064623783A46294601F035
:103E30003DF8BDF810204A4806F109018030093AE2
:103E4000FCF7BFFA20780126464F401C2070F96A23
:103E50004FF0820804A888478146237842463146BD
:103E600001F01AF8BDF810203D4809F10901193098
:103E7000093AFCF7A6FAB96A04A8884707462378E6
:103E80004246314601F008F8BDF81020344807F1E9
:103E900009019930093AFCF794FA2078DFF8C890C4
:103EA000401C2070D9F82C104FF0830B4FF0020803
:103EB00004A888470390207884270097CDE9016003
:103EC0004FF0030A5B4652464146039800F0A0FFBC
:103ED000BDF810202248039932300931093AFCF725
:103EE00070FAD9F8281004A88847814620780097EE
:103EF000CDE901605B4652464146484600F088FFE6
:103F0000BDF81020164809F10901B230093AFCF752
:103F100058FA20780922401C207011487D23773000
:103F20000421027080F801808370C57001714671B0
:103F30008571C024C471322707728038027080F8FE
:103F400001808370C570017146718571C4710772FB
:103F500005B0BDE8F08F0000780400207C0100204F
:103F6000451B002030020020700300200020704715
:103F7000F0B4104C104D0B790022A65CB34202D075
:103F8000AE5CB34201D10D4A0EE0521C12F0FF02AA
:103F9000F3D00B4A1278934201D10A4A04E00A4A4C
:103FA0001278934203D1094A9268F0BC1047F0BCE2
:103FB00003207047C7020020C802002070030020C1
:103FC000C9030020780400208D0100203002002069
:103FD00010B5D0F8B8220AB152689047002010BD41
:103FE00010B50A46024903A000F0DCF8004810BDF5
:103FF000681F0020434F4E46494755524154494F90
:104000004E203000134610B50A46002100F01CFC7B
:10401000002010BD134610B50A46002100F0B8FC80
:10402000002010BD10B50446802100F096FC20460B
:10403000BDE81040002100F090BC10B50323C0F88B
:104040009432C0F858211346C0F85C210A4600217A
:1040500000F0FAFB002010BD10B50521C0F8941245
:1040600000231A46194600F0EFFB002010BD10B5E2
:104070000223C0F8943282611346C2610A460021CD
:1040800000F086FC002010BD10B50421C0F8941289
:1040900000231A46194600F07BFC002010BD0000EA
:1040A000122008800048704790020020F8B50446AE
:1040B0000020ADF8000048880D46010A082968D2A2
:1040C000DFE801F0670409176767454ED4F8B412BA
:1040D000207C0A6819E0207C02260028D4F8B80267
:1040E00005D0C16A684688470146467042E0816A49
:1040F000F8E7C1B2062921D2DFE801F0030A101463
:10410000181CD4F8B402426805E06946904725E0DF
:10411000D4F8B4028268DAB3207CF6E7D4F8B402AB
:10412000C268F8E7D4F8B4020269F4E7D4F8B4023C
:104130004269F0E7D4F8B4028269ECE7D4F8B81227
:104140008B6B2BB3C1B26A462046984706E0207CB1
:10415000F0B9D4F8B802416B68468847014609E0D7
:10416000207CA8B9D4F8B802016B6846884701469C
:1041700007204870EA888AB1BDF8000040B1824249
:1041800000D90246ADF800202046FFF770FFF8BDC9
:10419000FFE729462046FFF745FFF8E72046FFF7EF
:1041A00073FFF4E770B5002300281ED000250446F5
:1041B00002E06D1CEDB2641C2678002EF9D10224B9
:1041C00004EB450414801278CA545B1C0322CA54C1
:1041D00000245B1C06E0CA545B1CDAB28C54521CEF
:1041E000D3B2401C0278002AF5D170BD01004FF017
:1041F000000004D0012901D0022901D0032070471A
:1042000001207047D0F8D40200210173084670479E
:10421000D0F8D002002101730846704770B50E4DEA
:104220000446297800F0F9F92978002001F00F01FF
:1042300001EB810104EB81018884297801F00F01F1
:1042400001EB810104EB8101C884D4F8D41209B1D7
:10425000C4F8D402002070BD8C01002070B50E4D52
:104260000446297800F0D9F92978002001F00F01DF
:1042700001EB810104EB81018884297801F00F01B1
:1042800001EB810104EB8101C884D4F8D01209B19B
:10429000C4F8D002002070BDC80300200A210180AC
:1042A00000487047E40100200A210180004870475F
:1042B0002004002022210180004870479001002046
:1042C0002221018000487047CC0300202221018078
:1042D00000487047B4010020222101800048704747
:1042E000F003002022210180004870479001002047
:1042F0002221018000487047CC03002070B5124E87
:10430000124DC0F8D4620446017C287800F00F00FA
:1043100000EB800004EB800099B10A21C1840823DE
:1043200003222978204600F083FA2978012001F041
:104330000F0101EB810104EB8101888400203073BF
:1043400070BD0721EAE700003C1C00208C01002022
:1043500070B5124E124DC0F8D0620446017C287828
:1043600000F00F0000EB800004EB800099B10A21FF
:10437000C184042303222978204600F059FA2978C1
:10438000012001F00F0101EB810104EB8101888420
:104390000020307370BD0721EAE7000004240020EC
:1043A000C803002010B51346D0F8D42222B190F8EB
:1043B0009C42032C02D00AE0032010BD147B34B9C8
:1043C000012414730A460349097800F0E1FA002039
:1043D00010BD00008C01002010B51346D0F8D0228B
:1043E00022B190F89C42032C02D00AE0032010BDB9
:1043F000147B34B9012414730A460349097800F088
:10440000C7FA002010BD0000C803002038B50346DD
:10441000D0F8D4020024ADF8004030B10A7812F090
:10442000600219D0202A51D101E0032038BD4A781A
:10443000022A0ED0032A06D00A2A06D00B2A45D11A
:104440008978016046E001222FE04988090A41602D
:1044500040E00122011D29E04A78062A10D003DC41
:104460003AB1012A32D135E00A2A23D00B2A2DD1C4
:1044700028E093F89C02032828D10222694615E01F
:1044800048882222B2EB102F05D1CA883F2A00D9D2
:104490003F22134809E02122B2EB102F16D1104819
:1044A000CA881838092A00D9092201461846FFF798
:1044B000DEFD0FE093F89C22032A07D1012200F1D0
:1044C0000801F3E793F89C22032A05D01846FFF76A
:1044D000A9FD0324204638BD89788160FAE70000F1
:1044E000F001002038B50346D0F8D0020024ADF822
:1044F000004030B10A7812F0600219D0202A51D160
:1045000001E0032038BD4A78022A0ED0032A06D0E3
:104510000A2A06D00B2A45D18978016046E001229B
:104520002FE04988090A416040E00122011D29E08D
:104530004A78062A10D003DC3AB1012A32D135E09C
:104540000A2A23D00B2A2DD128E093F89C020328B5
:1045500028D10222694615E048882222B2EB102FAA
:1045600005D1CA884A2A00D94A22134809E02122E3
:10457000B2EB102F16D11048CA881838092A00D972
:10458000092201461846FFF772FD0FE093F89C22BE
:10459000032A07D1012200F10801F3E793F89C22D6
:1045A000032A05D01846FFF73DFD0324204638BDF9
:1045B00089788160FAE700002C04002068B10023AC
:1045C000C0F8B832C0F8183309B1C0F8B4120121EC
:1045D00080F89C12027000F0B7B80320704700000A
:1045E00010B50A46024903A0FFF7DCFD004810BDE4
:1045F000681F0020434F4D504F5349544520494EAA
:10460000544552464143450010B5D0F81003FCF71D
:10461000F5FBBDE81040FFF7E9BD10B5D0F8100379
:10462000FCF7C6FBBDE81040FFF7E0BD70B51646CD
:10463000044621B194F89C02032841D048E0D4F804
:10464000941204F114000025022932D1D0E902317C
:104650008B4206D95A1A826031462046FFF7DAFCAF
:104660000FE0994214D14068884211D3D4F89812CF
:1046700088420DD2002211462046FFF7CBFCC4F839
:10468000985200231A461946204600F0DDF810E043
:1046900094F89C02032805D1D4F8B802C16809B186
:1046A000204688478021204600F057F92046FFF732
:1046B000D3FC94F8A00201280AD184F8A05207E0A4
:1046C000D4F8B80242691AB120469047002800D1B8
:1046D000002070BD10B51346044621B194F89C0229
:1046E000032823D02AE0D4F8941204F5AA700329F1
:1046F00024D1D0E9021291420AD98A1A8260C06894
:10470000824200D3024619462046FFF77BFC15E0A3
:1047100094F89C02032805D1D4F8B802016909B1C4
:10472000204688472046FFF7AFFC07E0D4F8B802E0
:1047300082691AB120469047002800D1002010BDA0
:10474000D0F81003FCF797BD2DE9F0472A4904463D
:10475000284808602178E9BBC0F8EC4200224023D9
:104760001146C4F81003FCF7F1FA80230022194621
:10477000D4F81003FCF7EAFA2049C0230022097894
:10478000D4F81003FCF7E2FA1D49C8230022097887
:10479000D4F81003FCF7DAFAD0261A4FDFF8688055
:1047A000DFF8689000253346795D0022D4F81003C5
:1047B000FCF7CCFA3036B6B218F8051033460022B2
:1047C000D4F81003FCF7C2FA3036B6B219F8051067
:1047D000334600E00AE00022D4F81003FCF7B6FAF2
:1047E00008366D1CB6B215F0FF05DCD00020BDE820
:1047F000F087000054050020C0020020C8030020FC
:104800008C010020C4020020C5020020C602002046
:104810000A0601F07F01D0F8100301EB810100EBE3
:10482000C10002D590F82A00704790F86A017047DD
:1048300010B51C461346D0F810032246FCF724FDA1
:10484000BDE81040FFF7D2BC10B5D0F81003FCF75C
:1048500048FDBDE81040FFF7C9BC70B5012504460E
:1048600080F89C520020C4F894026060C4F8A4024E
:10487000D4F8B802C8B1426812B10021204690476E
:104880000022402311462046FFF7D2FF4026A4F81D
:1048900064513346002280212046C4F86061FFF74E
:1048A000C7FFA5840020266270BD032070BD90F86C
:1048B0009C12042903D190F89D1280F89C120020CC
:1048C000704710B5D0F8B81221B190F89C22032A95
:1048D00002D004E0032010BDC96901B1884700205F
:1048E00010BD01740020704710B5D0F81003FCF71C
:1048F000AAFEBDE81040FFF779BC70B5044600F28F
:10490000AA20054600F068F80120C4F89402B4F823
:10491000B002C4F8980294F8AA0210F01F010AD05D
:1049200001290ED0022912D000F080012046BDE8F6
:10493000704000F012B829462046BDE8704000F0F3
:1049400013B929462046BDE8704000F037BA294621
:104950002046BDE8704000F091B910B5D0F81003C2
:10496000FCF7D6FCBDE81040FFF740BC10B5D0F80E
:104970001003FCF783FEBDE81040FFF737BC90F84A
:104980009C1280F89D12042180F89C120020704730
:1049900010B5D0F81003FCF7F4FCBDE81040FFF7A9
:1049A00025BC000004200880004870478C020020CD
:1049B00010B50A46024903A0FFF7F4FB004810BDFA
:1049C000681F002053544D6963726F656C65637492
:1049D000726F6E696373000070B5054611F8010BC4
:1049E0002870087868704C1C2046FEF7C2FD68806D
:1049F000A41C2046FEF7BDFDA880A01CFEF7B9FD53
:104A0000E88070BD10B50A46024903A0FFF7CAFB53
:104A1000004810BD681F002053544D333220434FCF
:104A20004D504F5349544520444556494345000095
:104A300038B504460020ADF8000059B1C4F8B812EA
:104A4000207C48B1C96A19B168468847C4F8180380
:104A5000002038BD032038BD896AF4E710B51A205C
:104A600008800A480168001D0468001D00680818D5
:104A700009D008220649FDF7B7FD05490422103187
:104A80002046FDF7B1FD0248801E10BDE8F7FF1F6C
:104A9000A602002002460320D2F8B832002B02D032
:104AA0001B681046184770472DE9F0410F462C4E01
:104AB0008978002504463170012906D939462046F7
:104AC000FFF7B0FA0320BDE8F08194F89C020228B9
:104AD0000CD003281DD039462046FFF7A3FA3178C1
:104AE0002046FFF775FA03252846ECE799B32046E0
:104AF0006160FFF7CFFF050004D039462046FFF77D
:104B000091FAF1E72046FFF7BFFA032084F89C02F0
:104B1000EAE74FF00208C1B1606888421BD0C1B219
:104B20002046FFF755FA317820466160FFF7B2FF63
:104B3000050010D039462046FFF774FA2179204647
:104B4000FFF746FA84F89C82CEE784F89C822046E0
:104B50006160FFF73DFA2046FFF796FAC4E70000D0
:104B60006C020020FFF702BF2DE9F0410A78002512
:104B700012F0600208D0202A01D0402A71D1D0F86A
:104B8000B8229268904731E04B78002201260A2B28
:104B900067D2DFE803F0415E6658660805662D2996
:104BA000FFF784FA5FE004468888D8B9C888C8B996
:104BB0004888802816D200F07F0794F89C020328CA
:104BC00010D084F89E7239462046FFF78DFE2046AD
:104BD000FFF75AFA1FB1022084F89C0243E084F8E0
:104BE0009C6240E020463CE0FFF75EFF05463AE06D
:104BF000CB88012B35D190F89C32012B04D0022BAD
:104C000002D0032B2DD104E08260012200F10801C3
:104C100016E00122011D13E090F89C22012A03D026
:104C2000022A01D0032A1CD1CA88022A19D1C660DF
:104C3000D0F8A41209B10321C160022200F10C01D5
:104C4000FFF715FA0FE0498801290CD1C0F8A462DA
:104C500011E090F89C32012B08D0022B06D0032BD8
:104C600004D0FFF7DFF92846BDE8F0814988012923
:104C7000F9D1C0F8A422FFF707FAF4E72DE9F041D3
:104C80000D46044628780026097910F060000BD004
:104C9000202801D040286DD1D4F8B8022946826876
:104CA00020469047064686E06878A8B3012822D0BF
:104CB00003287CD194F89C02022802D0032876D1E4
:104CC0000BE0002973D0802971D02046FFF745FE04
:104CD00080212046FFF741FE6DE0688838B931B188
:104CE000802904D0E88810B92046FFF736FE204618
:104CF000FFF7CAF95FE094F89C020228E1D003288C
:104D000055D16888A8BB480602D02046FFF77CFC36
:104D10002046FFF7B9F9BFE7FFE794F89C020027A8
:104D2000022802D0032842D111E009B180293ED1E6
:104D3000080601F07F0000EB800004EB800101D544
:104D4000143101E001F5AA7102220F602BE0080680
:104D500001F00F0000EB800004EB80000BD5808C8D
:104D600040B101F07F0000EB800004EB80051435BA
:104D70000CE020E01BE0B0F86401C0B101F07F005E
:104D800000EB800004EB800505F5AA7541B1802990
:104D900006D02046FFF73CFD10B10120286000E05E
:104DA0002F60022229462046FFF761F903E02946D9
:104DB0002046FFF737F93046BDE8F08170B506466A
:104DC000087800240D4610F0600003D0202801D0A0
:104DD000402817D196F89C02012803D0022801D060
:104DE00003280FD128790F280CD8D6F8B80282688A
:104DF000304690470446E888204306D13046FFF706
:104E000043F902E03046FFF70DF9204670BD00007F
:104E10002DE9F04FDFF87CC0DDE90A650CF10109EE
:104E20000024099F09F1010A09F1020B09F1030E9F
:104E30000930817005748172827680F8221080F8C2
:104E4000232080F8267080F82D2080F8366080F8C6
:104E50003D300CF8043009F804600AF804700BF8CF
:104E600004100EF804200B4A9B1C521DDBB2155592
:104E70005A1C891CD7B2C9B2761C6D1C4A1C423020
:104E8000641CF6B2EDB2D2B214F0FF04D1D0BDE88A
:104E9000F08F0000C4020020C172437442770248C0
:104EA00002704170837070478C010020C17243749E
:104EB000427702480270417083707047C803002037
:104EC0002DE9F0470C78002630F8243048F68F1290
:104ED0001340CA78002A78D0012A7CD0022A02D056
:104EE000032A75D0012648F28002134320F82430AB
:104EF0000D7830F8253048F68F7423402B43134348
:104F000020F825300D7B48F2C00948F6BF734CF2FB
:104F1000800A4BF68F77EDB3CD7891F800C0022D63
:104F200030F82C507DD048F68F6805EA0805154307
:104F300020F82C50B0F8505091F800C0054405EB13
:104F40000C15B1F808C02CF0010CA5F800C4B0F89D
:104F5000505091F800C0054405EB0C15B1F80AC09B
:104F60002CF0010CA5F808C44D78002D7ED00D78EA
:104F700030F825C05FEA4C4C07D530F825C00CEA64
:104F8000040C4CEA0A0C20F825C091F800C030F857
:104F90002C5000E022E06D0606D530F82C5025405C
:104FA00045EA090520F82C50CC780D78012C30F812
:104FB000254004EA03047CD084F02003134320F846
:104FC0002530C1E001E006E002E043F400738AE727
:104FD00043F4C06387E743F4806384E74D784DB3BF
:104FE000B0F850500F78054405EB0715CF8827F02F
:104FF0000107A5F800740F7830F827506D0606D524
:1050000030F82750254045EA090520F82750CC788C
:10501000012C07D00C7830F82410194081F02001C1
:1050200004E064E00C7830F824101940114320F8B3
:10503000241090E0B0F850300D78034403EB0513D2
:10504000CD8825F00105A3F80854B0F850300D784C
:10505000034403EB0513B3F80C54C5F30905A3F897
:105060000C540D6903F20C433E2D00E045E00BD9D2
:105070004FEA551CED0601D1ACF1010C1D884FF42F
:10508000004848EA8C2C0BE035B34FEA550CED078D
:1050900001D00CF1010C1D884FF6FF7808EA8C2C2A
:1050A00045EA0C051D800D7830F825305B0408D5E5
:1050B00000E046E030F82530234043EA0A0320F8B8
:1050C0002530097861B130F821303B4083F400533A
:1050D000134320F821303EE01D8845F40045E1E708
:1050E0000188394081F440511143018033E025406B
:1050F00048F2801845EA08051AE791F800C030F830
:105100002C506D0406D530F82C50254045EA0A0590
:1051100020F82C5091F800C030F82C506D0606D5C0
:1051200030F82C50254045EA090520F82C500D7820
:1051300030F825403C4084F44054144320F8254086
:1051400070E7144320F825400B7830F823103940DD
:10515000114320F823103046BDE8F0870020704747
:105160002DE9F04391F80C804F780A7848F6BF7C1F
:105170004BF68F7948F2800348F2C0054CF2800666
:1051800048F68F74B8F1000F28D0002F30F8227045
:105190004FEA474748D0002F05DA30F82270274001
:1051A000374320F822700A7830F822707F0605D540
:1051B00030F8227027402F4320F822700D7830F805
:1051C00025202240324320F825200C7830F8242076
:1051D00002EA0C021A4320F824201AE07FB130F8CA
:1051E0002260760605D530F8226026402E4320F84E
:1051F00022600A7830F8221001EA0C010EE030F843
:1052000022506D0405D530F822502540354320F852
:1052100022500A7830F8221001EA0901194320F8D7
:1052200022100020BDE8F083002F05DA30F822704C
:105230002740374320F822700A7830F8226076063B
:1052400005D530F8226026402E4320F822600E78E3
:1052500030F8262022402A4320F826200C7830F807
:10526000242002EA09021A4320F82420C1E7002082
:10527000704700207047012120F8401F0021018065
:10528000818001820846704730F8401F21F43F4179
:105290000180002070470020704730B50A7BB2BB08
:1052A0004A7848F68F7548F28004C2B10B7830F81E
:1052B0002320520607D530F823202A4048F2C005A3
:1052C0002A4320F82320CA78012A20D00A7830F80F
:1052D000221048F6BF73194081F0200114E00A78CB
:1052E00030F822305B0407D530F822302B404CF2E6
:1052F00080052B4320F822300A7830F822104BF634
:105300008F73194081F44051214320F8221000206E
:1053100030BD10B54A780978002A48F2800330F889
:10532000212005D048F6BF74224082F0100204E02C
:105330004BF68F74224082F480521A4320F82120C9
:10534000002010BD2DE9F0470D464B78097B04463F
:105350004FF0000948F68F7248F2800A4FF4004778
:105360004FF6FF78012B09D000296FD0E87802288A
:105370006DD001286CD00120BDE8F087AE692869A6
:10538000864200D9064691B1E97802291ED0286AE2
:10539000801B2862287834F820104906B4F8501091
:1053A000214401EB001073D5A0F80C6416E1B3B2F0
:1053B000EA882046696900F084FAB4F85000297838
:1053C000204400EB0110A0F804640DE1296A814239
:1053D00077D9297834F82100104048F28012104320
:1053E00024F82100286A801B2862287834F82010CD
:1053F0004906697871D511B101292AD030E0B4F895
:105400005010214401EB0010B0F80C14C1F3090155
:10541000A0F80C1400F20C403E2E07D97109F206D8
:1054200000D1491E028847EA812107E04EB1710888
:10543000F20700D0491C028808EA81210A43028051
:105440000EE0018841F40041018009E0F1E020E133
:1054500095E1B4F85020111901EB0010A0F80C648C
:105460006A89B3B22046696900F02BFA6869304452
:1054700068612969286A884202D9801B286202E093
:105480000646C5F82090687818B101282BD032E084
:105490002FE0B4F850002978204400EB0110B0F858
:1054A0000414C1F30901A0F8041400F204403E2ED4
:1054B00008D97109F20600D1491E028847EA812104
:1054C00008E0A1E056B17108F20700D0491C02883B
:1054D00008EA81210A4302800DE00EE0018841F4D0
:1054E0000041018007E0B4F850002978204400EB27
:1054F0000110A0F804642A8971E011B1012927D0B4
:105500002DE0B4F85010214401EB0010B0F8041461
:10551000C1F30901A0F8041400F204403E2E07D99B
:105520007109F20600D1491E028847EA812107E08D
:105530004EB17108F20700D0491C028808EA8121A7
:105540000A4302800BE0018841F40041018006E03B
:10555000B4F85010214401EB0010A0F804642A892B
:10556000B3B22046696900F0ACF9686930446861FB
:105570002969286A884202D9801B286202E006460F
:10558000C5F82090687810B1012836D026E0B4F82C
:1055900050002978204400EB0110B0F80C14C1F33E
:1055A0000901A0F80C1400F20C403E2E07D9710935
:1055B000F20600D1491E028847EA812107E04EB178
:1055C0007108F20700D0491C028808EA81210A43C9
:1055D000028003E0018841F4004101806A89B3B28E
:1055E0002046696900F06DF9297834F8210048F601
:1055F000BF72104080F030000FE1B4F8501008196D
:10560000297800EB0110CFE62A7834F8220048F61A
:105610008F63184040EA0A0024F82200B4F85000D2
:105620002A78204400EB02108BB2A0F804342A89B7
:10563000D6E7A9692869814202D9091AA96102E05D
:105640000846C5F81890B4F850102A78214401EBA8
:105650000211B1F80C24C2F30902A1F80C2401F2E2
:105660000C413E287DD94209C00600D1521E08884F
:1056700047EA82220AE0088840F4004007E0420836
:10568000C00700D0521C088808EA82221043088014
:10569000BBE033BBB4F850002978204400EB011084
:1056A000B0F80414C1F30901A0F80414296900F248
:1056B00004403E2907D94B09C90600D15B1E018869
:1056C00047EA832307E041B14B08C90700D05B1CC0
:1056D000018808EA8323194302E0018841F400416C
:1056E0000180687810B1012828D030E0B4F850006B
:1056F0002978204400EB0110B0F80C14C1F3090123
:10570000A0F80C14296900F20C403E2907D94B0976
:10571000C90600D15B1E018847EA832307E041B137
:105720004B08C90700D05B1C018808EA8323194392
:1057300002E0018841F40041018008E0B4F8501013
:105740000819297800EB0110298AA0F80C14E869DF
:10575000C0B3297834F82100430401D5430605D4A9
:1057600000E046E044F2400318424ED134F82100F4
:10577000104048F2C002104324F8210045E0A96916
:105780002869814202D9091AA96102E00846C5F8D0
:10579000189013BBB4F850102A78214401EB021181
:1057A000B1F80424C2F30902A1F8042401F204416F
:1057B0003E2808D94209C30600D1521E0B8847EA89
:1057C000822208E021E078B14208C30700D0521CD1
:1057D0000B8808EA822213430B80697800293FF482
:1057E0002EAF012909D010E00A8842F400420A8055
:1057F000F3E700287FF443AF3DE7B4F850201119D8
:105800002A7801EB0211A1F80C04297834F8210060
:105810004BF68F72104080F4405040EA0A0024F8A2
:1058200021000020A8E50021A0F844104FF43F41DA
:10583000A0F84010002070470148FBF7BBBD0000F6
:10584000540500200148FBF7B5BD000054050020B9
:10585000B0F844007047000010B500EB42005C084F
:1058600000F5806009D000BF30F8042B01F8012B4F
:10587000120A01F8012B641EF6D1DA0701D0008864
:10588000087010BD01784B2908D04D290BD056293E
:105890000ED14178D0F8020000F0A2B8D0F8020092
:1058A0001521FCF7BDBED0F802000421FDF7AAB80F
:1058B00070470020704711B98021A0F84C100020DB
:1058C000704710B55B1C00EB42005B0800F5806080
:1058D00009D011F8012B11F8014B42EA042220F8FB
:1058E000042B5B1EF5D110BDFEE7000001480168E6
:1058F000416070470000002010B51F4CA0680028D0
:1059000038D02169002935D021686268891AE26897
:10591000C1F30A0191422DD36168E2680A44B2F5ED
:10592000006F1649626807D81144E268FAF749FD2A
:105930006068E168084415E06368C2F500621944D4
:10594000FAF73FFDE06861680844A0F50060E06098
:10595000D4E90110E268401A084900F50060FAF73E
:1059600030FDE06860600020E060A0602069BDE874
:105970001040004710BD0000000000204408002037
:1059800070B5154C06460D462068C0F50061A94269
:105990001248216808D308442A463146FAF711FD17
:1059A00020682844206013E0C1F5006221680844A3
:1059B0003146FAF706FD206805442068A5F5006524
:1059C000311A2A46054801F50061FAF7FAFC25600C
:1059D000BDE87040FFF790BF0000002044080020A1
:1059E00070B505460C460A20FAF7F4FF2246294610
:1059F0000020FAF79BFE08B1002070BD012070BDA9
:105A00000907090E002804DB00F1E02080F80014EB
:105A1000704700F00F0000F1E02080F8141D70477F
:105A200070B505460020024607240DE0AB5C5840E7
:105A30000023060602D584EA400000E040005B1C1B
:105A4000C0B2082BF5DB521C8A42EFD370BD10B5F3
:105A5000044600F03CF808B1002010BDD4F8000165
:105A6000D4F8001154F82000D4F80421914206D152
:105A70004FF0FF31C4F80011C4F8041110BDD4F880
:105A80000011491CC4F8001110BD70B50446D0F8CF
:105A900004010D463F280FD00026204600F017F8DD
:105AA00008B1C4F80061D4F80401401CC4F8040132
:105AB000D4F8040144F8205070BD4FF0FF31C0F815
:105AC0000011C0F804114FF48071FAF7F1BCD0F85E
:105AD0000011491C05D0D0F80011D0F80401814212
